{
  "_format": "hh-sol-artifact-1",
  "contractName": "Web3RSVP",
  "sourceName": "contracts/web3RSVP.sol",
  "abi": [
    {
      "anonymous": false,
      "inputs": [
        {
          "indexed": false,
          "internalType": "bytes32",
          "name": "eventID",
          "type": "bytes32"
        },
        {
          "indexed": false,
          "internalType": "address",
          "name": "attendeeAddress",
          "type": "address"
        }
      ],
      "name": "ConfirmedAttendee",
      "type": "event"
    },
    {
      "anonymous": false,
      "inputs": [
        {
          "indexed": false,
          "internalType": "bytes32",
          "name": "eventID",
          "type": "bytes32"
        }
      ],
      "name": "DepositsPaidOut",
      "type": "event"
    },
    {
      "anonymous": false,
      "inputs": [
        {
          "indexed": false,
          "internalType": "bytes32",
          "name": "eventID",
          "type": "bytes32"
        },
        {
          "indexed": false,
          "internalType": "bool",
          "name": "isDisabled",
          "type": "bool"
        }
      ],
      "name": "DisableEvent",
      "type": "event"
    },
    {
      "anonymous": false,
      "inputs": [
        {
          "indexed": false,
          "internalType": "bytes32",
          "name": "eventID",
          "type": "bytes32"
        },
        {
          "indexed": false,
          "internalType": "address",
          "name": "creatorAddress",
          "type": "address"
        },
        {
          "indexed": false,
          "internalType": "uint256",
          "name": "eventTimestamp",
          "type": "uint256"
        },
        {
          "indexed": false,
          "internalType": "uint256",
          "name": "maxCapacity",
          "type": "uint256"
        },
        {
          "indexed": false,
          "internalType": "uint256",
          "name": "eventCost",
          "type": "uint256"
        },
        {
          "indexed": false,
          "internalType": "uint256",
          "name": "deposit",
          "type": "uint256"
        },
        {
          "indexed": false,
          "internalType": "string",
          "name": "eventDataCID",
          "type": "string"
        },
        {
          "indexed": false,
          "internalType": "bool",
          "name": "isDisabled",
          "type": "bool"
        }
      ],
      "name": "NewEventCreated",
      "type": "event"
    },
    {
      "anonymous": false,
      "inputs": [
        {
          "indexed": false,
          "internalType": "bytes32",
          "name": "eventID",
          "type": "bytes32"
        },
        {
          "indexed": false,
          "internalType": "address",
          "name": "attendeeAddress",
          "type": "address"
        }
      ],
      "name": "NewRSVP",
      "type": "event"
    },
    {
      "inputs": [
        {
          "internalType": "bytes32",
          "name": "eventId",
          "type": "bytes32"
        }
      ],
      "name": "confirmAllAttendees",
      "outputs": [],
      "stateMutability": "nonpayable",
      "type": "function"
    },
    {
      "inputs": [
        {
          "internalType": "bytes32",
          "name": "eventId",
          "type": "bytes32"
        },
        {
          "internalType": "address",
          "name": "attendee",
          "type": "address"
        }
      ],
      "name": "confirmAttendee",
      "outputs": [],
      "stateMutability": "nonpayable",
      "type": "function"
    },
    {
      "inputs": [
        {
          "internalType": "uint256",
          "name": "eventTimestamp",
          "type": "uint256"
        },
        {
          "internalType": "uint256",
          "name": "deposit",
          "type": "uint256"
        },
        {
          "internalType": "uint256",
          "name": "maxCapacity",
          "type": "uint256"
        },
        {
          "internalType": "uint256",
          "name": "eventCost",
          "type": "uint256"
        },
        {
          "internalType": "string",
          "name": "eventDataCID",
          "type": "string"
        }
      ],
      "name": "createNewEvent",
      "outputs": [],
      "stateMutability": "nonpayable",
      "type": "function"
    },
    {
      "inputs": [
        {
          "internalType": "bytes32",
          "name": "eventId",
          "type": "bytes32"
        }
      ],
      "name": "createNewRSVP",
      "outputs": [],
      "stateMutability": "payable",
      "type": "function"
    },
    {
      "inputs": [
        {
          "internalType": "bytes32",
          "name": "eventId",
          "type": "bytes32"
        }
      ],
      "name": "disableEvent",
      "outputs": [],
      "stateMutability": "nonpayable",
      "type": "function"
    },
    {
      "inputs": [
        {
          "internalType": "bytes32",
          "name": "",
          "type": "bytes32"
        }
      ],
      "name": "idToEvent",
      "outputs": [
        {
          "internalType": "bytes32",
          "name": "eventId",
          "type": "bytes32"
        },
        {
          "internalType": "string",
          "name": "eventDataCID",
          "type": "string"
        },
        {
          "internalType": "address",
          "name": "eventOwner",
          "type": "address"
        },
        {
          "internalType": "uint256",
          "name": "eventTimestamp",
          "type": "uint256"
        },
        {
          "internalType": "uint256",
          "name": "deposit",
          "type": "uint256"
        },
        {
          "internalType": "uint256",
          "name": "maxCapacity",
          "type": "uint256"
        },
        {
          "internalType": "uint256",
          "name": "eventCost",
          "type": "uint256"
        },
        {
          "internalType": "bool",
          "name": "paidOut",
          "type": "bool"
        },
        {
          "internalType": "bool",
          "name": "isDisabled",
          "type": "bool"
        }
      ],
      "stateMutability": "view",
      "type": "function"
    },
    {
      "inputs": [
        {
          "internalType": "bytes32",
          "name": "eventId",
          "type": "bytes32"
        }
      ],
      "name": "withdrawUnclaimedDeposits",
      "outputs": [],
      "stateMutability": "nonpayable",
      "type": "function"
    }
  ],
  "bytecode": "0x608060405234801561001057600080fd5b50612643806100206000396000f3fe6080604052600436106100705760003560e01c8063909ef0211161004e578063909ef021146100e3578063acdbe01214610128578063b39539b514610151578063d90974af1461017a57610070565b806317f0165a146100755780636dcdf2cd1461009157806379747571146100ba575b600080fd5b61008f600480360381019061008a9190611941565b6101a3565b005b34801561009d57600080fd5b506100b860048036038101906100b391906119cc565b610410565b005b3480156100c657600080fd5b506100e160048036038101906100dc9190611941565b6108e9565b005b3480156100ef57600080fd5b5061010a60048036038101906101059190611941565b610dc1565b60405161011f99989796959493929190611af7565b60405180910390f35b34801561013457600080fd5b5061014f600480360381019061014a9190611941565b610ed1565b005b34801561015d57600080fd5b5061017860048036038101906101739190611941565b611227565b005b34801561018657600080fd5b506101a1600480360381019061019c9190611c1c565b611577565b005b60008060008381526020019081526020016000209050806004015434146101ff576040517f08c379a00000000000000000000000000000000000000000000000000000000081526004016101f690611d02565b60405180910390fd5b8060030154421115610246576040517f08c379a000000000000000000000000000000000000000000000000000000000815260040161023d90611d6e565b60405180910390fd5b8060050154816007018054905010610293576040517f08c379a000000000000000000000000000000000000000000000000000000000815260040161028a90611dda565b60405180910390fd5b60005b81600701805490508160ff16101561036d573373ffffffffffffffffffffffffffffffffffffffff16826007018260ff16815481106102d8576102d7611dfa565b5b9060005260206000200160009054906101000a900473ffffffffffffffffffffffffffffffffffffffff1673ffffffffffffffffffffffffffffffffffffffff16141561035a576040517f08c379a000000000000000000000000000000000000000000000000000000000815260040161035190611e75565b60405180910390fd5b808061036590611ed1565b915050610296565b5080600701339080600181540180825580915050600190039060005260206000200160009091909190916101000a81548173ffffffffffffffffffffffffffffffffffffffff021916908373ffffffffffffffffffffffffffffffffffffffff1602179055507fb79f4240bbdd272d98e02a5db7f0cf156e5fc000961c517670a26eeeec63ed908233604051610404929190611efb565b60405180910390a15050565b600080600084815260200190815260200160002090508060020160009054906101000a900473ffffffffffffffffffffffffffffffffffffffff1673ffffffffffffffffffffffffffffffffffffffff163373ffffffffffffffffffffffffffffffffffffffff16146104b8576040517f08c379a00000000000000000000000000000000000000000000000000000000081526004016104af90611f70565b60405180910390fd5b600080600090505b82600701805490508160ff1610156105a3578373ffffffffffffffffffffffffffffffffffffffff16836007018260ff168154811061050257610501611dfa565b5b9060005260206000200160009054906101000a900473ffffffffffffffffffffffffffffffffffffffff1673ffffffffffffffffffffffffffffffffffffffff16141561059057826007018160ff168154811061056257610561611dfa565b5b9060005260206000200160009054906101000a900473ffffffffffffffffffffffffffffffffffffffff1691505b808061059b90611ed1565b9150506104c0565b508273ffffffffffffffffffffffffffffffffffffffff168173ffffffffffffffffffffffffffffffffffffffff1614610612576040517f08c379a000000000000000000000000000000000000000000000000000000000815260040161060990611fdc565b60405180910390fd5b60005b82600801805490508160ff1610156106ec578373ffffffffffffffffffffffffffffffffffffffff16836008018260ff168154811061065757610656611dfa565b5b9060005260206000200160009054906101000a900473ffffffffffffffffffffffffffffffffffffffff1673ffffffffffffffffffffffffffffffffffffffff1614156106d9576040517f08c379a00000000000000000000000000000000000000000000000000000000081526004016106d090612048565b60405180910390fd5b80806106e490611ed1565b915050610615565b50600015158260090160009054906101000a900460ff16151514610745576040517f08c379a000000000000000000000000000000000000000000000000000000000815260040161073c906120b4565b60405180910390fd5b81600801839080600181540180825580915050600190039060005260206000200160009091909190916101000a81548173ffffffffffffffffffffffffffffffffffffffff021916908373ffffffffffffffffffffffffffffffffffffffff16021790555060008373ffffffffffffffffffffffffffffffffffffffff1683600401546040516107d490612105565b60006040518083038185875af1925050503d8060008114610811576040519150601f19603f3d011682016040523d82523d6000602084013e610816565b606091505b505090508061086957826008018054806108335761083261211a565b5b6001900381819060005260206000200160006101000a81549073ffffffffffffffffffffffffffffffffffffffff021916905590555b806108a9576040517f08c379a00000000000000000000000000000000000000000000000000000000081526004016108a090612195565b60405180910390fd5b7ff8d1583a733d83bdd3ef5464129d0a95a36d62b382d31c6d0467a61f4264381b85856040516108da929190611efb565b60405180910390a15050505050565b60008060008381526020019081526020016000206040518061016001604052908160008201548152602001600182018054610923906121e4565b80601f016020809104026020016040519081016040528092919081815260200182805461094f906121e4565b801561099c5780601f106109715761010080835404028352916020019161099c565b820191906000526020600020905b81548152906001019060200180831161097f57829003601f168201915b505050505081526020016002820160009054906101000a900473ffffffffffffffffffffffffffffffffffffffff1673ffffffffffffffffffffffffffffffffffffffff1673ffffffffffffffffffffffffffffffffffffffff1681526020016003820154815260200160048201548152602001600582015481526020016006820154815260200160078201805480602002602001604051908101604052809291908181526020018280548015610aa857602002820191906000526020600020905b8160009054906101000a900473ffffffffffffffffffffffffffffffffffffffff1673ffffffffffffffffffffffffffffffffffffffff1681526020019060010190808311610a5e575b5050505050815260200160088201805480602002602001604051908101604052809291908181526020018280548015610b3657602002820191906000526020600020905b8160009054906101000a900473ffffffffffffffffffffffffffffffffffffffff1673ffffffffffffffffffffffffffffffffffffffff1681526020019060010190808311610aec575b505050505081526020016009820160009054906101000a900460ff161515151581526020016009820160019054906101000a900460ff161515151581525050905080610120015115610bbd576040517f08c379a0000000000000000000000000000000000000000000000000000000008152600401610bb490612262565b60405180910390fd5b62093a808160600151610bd09190612282565b421015610c12576040517f08c379a0000000000000000000000000000000000000000000000000000000008152600401610c0990612324565b60405180910390fd5b806040015173ffffffffffffffffffffffffffffffffffffffff163373ffffffffffffffffffffffffffffffffffffffff1614610c84576040517f08c379a0000000000000000000000000000000000000000000000000000000008152600401610c7b90612390565b60405180910390fd5b6000816101000151518260e0015151610c9d91906123b0565b90506000826080015182610cb191906123e4565b905060018361012001901515908115158152505060003373ffffffffffffffffffffffffffffffffffffffff1682604051610ceb90612105565b60006040518083038185875af1925050503d8060008114610d28576040519150601f19603f3d011682016040523d82523d6000602084013e610d2d565b606091505b5050905080610d43576000151584610120015150505b80610d83576040517f08c379a0000000000000000000000000000000000000000000000000000000008152600401610d7a90612195565b60405180910390fd5b7f393073ea1365f611c3d2f240c992960d2b99dc81715555d3fc40fc55ba80af9c85604051610db2919061243e565b60405180910390a15050505050565b6000602052806000526040600020600091509050806000015490806001018054610dea906121e4565b80601f0160208091040260200160405190810160405280929190818152602001828054610e16906121e4565b8015610e635780601f10610e3857610100808354040283529160200191610e63565b820191906000526020600020905b815481529060010190602001808311610e4657829003601f168201915b5050505050908060020160009054906101000a900473ffffffffffffffffffffffffffffffffffffffff16908060030154908060040154908060050154908060060154908060090160009054906101000a900460ff16908060090160019054906101000a900460ff16905089565b60008060008381526020019081526020016000206040518061016001604052908160008201548152602001600182018054610f0b906121e4565b80601f0160208091040260200160405190810160405280929190818152602001828054610f37906121e4565b8015610f845780601f10610f5957610100808354040283529160200191610f84565b820191906000526020600020905b815481529060010190602001808311610f6757829003601f168201915b505050505081526020016002820160009054906101000a900473ffffffffffffffffffffffffffffffffffffffff1673ffffffffffffffffffffffffffffffffffffffff1673ffffffffffffffffffffffffffffffffffffffff168152602001600382015481526020016004820154815260200160058201548152602001600682015481526020016007820180548060200260200160405190810160405280929190818152602001828054801561109057602002820191906000526020600020905b8160009054906101000a900473ffffffffffffffffffffffffffffffffffffffff1673ffffffffffffffffffffffffffffffffffffffff1681526020019060010190808311611046575b505050505081526020016008820180548060200260200160405190810160405280929190818152602001828054801561111e57602002820191906000526020600020905b8160009054906101000a900473ffffffffffffffffffffffffffffffffffffffff1673ffffffffffffffffffffffffffffffffffffffff16815260200190600101908083116110d4575b505050505081526020016009820160009054906101000a900460ff161515151581526020016009820160019054906101000a900460ff1615151515815250509050806040015173ffffffffffffffffffffffffffffffffffffffff163373ffffffffffffffffffffffffffffffffffffffff16146111d1576040517f08c379a00000000000000000000000000000000000000000000000000000000081526004016111c890611f70565b60405180910390fd5b60005b8160e00151518160ff1610156112225761120f838360e001518360ff168151811061120257611201611dfa565b5b6020026020010151610410565b808061121a90611ed1565b9150506111d4565b505050565b60008060008381526020019081526020016000206040518061016001604052908160008201548152602001600182018054611261906121e4565b80601f016020809104026020016040519081016040528092919081815260200182805461128d906121e4565b80156112da5780601f106112af576101008083540402835291602001916112da565b820191906000526020600020905b8154815290600101906020018083116112bd57829003601f168201915b505050505081526020016002820160009054906101000a900473ffffffffffffffffffffffffffffffffffffffff1673ffffffffffffffffffffffffffffffffffffffff1673ffffffffffffffffffffffffffffffffffffffff16815260200160038201548152602001600482015481526020016005820154815260200160068201548152602001600782018054806020026020016040519081016040528092919081815260200182805480156113e657602002820191906000526020600020905b8160009054906101000a900473ffffffffffffffffffffffffffffffffffffffff1673ffffffffffffffffffffffffffffffffffffffff168152602001906001019080831161139c575b505050505081526020016008820180548060200260200160405190810160405280929190818152602001828054801561147457602002820191906000526020600020905b8160009054906101000a900473ffffffffffffffffffffffffffffffffffffffff1673ffffffffffffffffffffffffffffffffffffffff168152602001906001019080831161142a575b505050505081526020016009820160009054906101000a900460ff161515151581526020016009820160019054906101000a900460ff1615151515815250509050806040015173ffffffffffffffffffffffffffffffffffffffff163373ffffffffffffffffffffffffffffffffffffffff1614611527576040517f08c379a000000000000000000000000000000000000000000000000000000000815260040161151e90611f70565b60405180910390fd5b6001816101400190151590811515815250507ffc01fc5aa9d81953f32cb05059a55be004432facf4384e328f89f139627a5e5382600160405161156b929190612459565b60405180910390a15050565b600033308888886040516020016115929594939291906124eb565b60405160208183030381529060405280519060200120905060608060405180610160016040528084815260200186868080601f016020809104026020016040519081016040528093929190818152602001838380828437600081840152601f19601f8201169050808301925050505050505081526020013373ffffffffffffffffffffffffffffffffffffffff1681526020018a8152602001898152602001888152602001878152602001838152602001828152602001600015158152602001600015158152506000808581526020019081526020016000206000820151816000015560208201518160010190805190602001906116919291906117d4565b5060408201518160020160006101000a81548173ffffffffffffffffffffffffffffffffffffffff021916908373ffffffffffffffffffffffffffffffffffffffff160217905550606082015181600301556080820151816004015560a0820151816005015560c0820151816006015560e082015181600701908051906020019061171d92919061185a565b5061010082015181600801908051906020019061173b92919061185a565b506101208201518160090160006101000a81548160ff0219169083151502179055506101408201518160090160016101000a81548160ff0219169083151502179055509050507f86b90629c411e2af92eb9a5d15866928baae3c40a46593d7e889ad88c2249e1c83338b8a8c8b8b8b60006040516117c199989796959493929190612586565b60405180910390a1505050505050505050565b8280546117e0906121e4565b90600052602060002090601f0160209004810192826118025760008555611849565b82601f1061181b57805160ff1916838001178555611849565b82800160010185558215611849579182015b8281111561184857825182559160200191906001019061182d565b5b50905061185691906118e4565b5090565b8280548282559060005260206000209081019282156118d3579160200282015b828111156118d25782518260006101000a81548173ffffffffffffffffffffffffffffffffffffffff021916908373ffffffffffffffffffffffffffffffffffffffff1602179055509160200191906001019061187a565b5b5090506118e091906118e4565b5090565b5b808211156118fd5760008160009055506001016118e5565b5090565b600080fd5b600080fd5b6000819050919050565b61191e8161190b565b811461192957600080fd5b50565b60008135905061193b81611915565b92915050565b60006020828403121561195757611956611901565b5b60006119658482850161192c565b91505092915050565b600073ffffffffffffffffffffffffffffffffffffffff82169050919050565b60006119998261196e565b9050919050565b6119a98161198e565b81146119b457600080fd5b50565b6000813590506119c6816119a0565b92915050565b600080604083850312156119e3576119e2611901565b5b60006119f18582860161192c565b9250506020611a02858286016119b7565b9150509250929050565b611a158161190b565b82525050565b600081519050919050565b600082825260208201905092915050565b60005b83811015611a55578082015181840152602081019050611a3a565b83811115611a64576000848401525b50505050565b6000601f19601f8301169050919050565b6000611a8682611a1b565b611a908185611a26565b9350611aa0818560208601611a37565b611aa981611a6a565b840191505092915050565b611abd8161198e565b82525050565b6000819050919050565b611ad681611ac3565b82525050565b60008115159050919050565b611af181611adc565b82525050565b600061012082019050611b0d600083018c611a0c565b8181036020830152611b1f818b611a7b565b9050611b2e604083018a611ab4565b611b3b6060830189611acd565b611b486080830188611acd565b611b5560a0830187611acd565b611b6260c0830186611acd565b611b6f60e0830185611ae8565b611b7d610100830184611ae8565b9a9950505050505050505050565b611b9481611ac3565b8114611b9f57600080fd5b50565b600081359050611bb181611b8b565b92915050565b600080fd5b600080fd5b600080fd5b60008083601f840112611bdc57611bdb611bb7565b5b8235905067ffffffffffffffff811115611bf957611bf8611bbc565b5b602083019150836001820283011115611c1557611c14611bc1565b5b9250929050565b60008060008060008060a08789031215611c3957611c38611901565b5b6000611c4789828a01611ba2565b9650506020611c5889828a01611ba2565b9550506040611c6989828a01611ba2565b9450506060611c7a89828a01611ba2565b935050608087013567ffffffffffffffff811115611c9b57611c9a611906565b5b611ca789828a01611bc6565b92509250509295509295509295565b7f4e4f5420454e4f55474800000000000000000000000000000000000000000000600082015250565b6000611cec600a83611a26565b9150611cf782611cb6565b602082019050919050565b60006020820190508181036000830152611d1b81611cdf565b9050919050565b7f414c52454144592048415050454e454400000000000000000000000000000000600082015250565b6000611d58601083611a26565b9150611d6382611d22565b602082019050919050565b60006020820190508181036000830152611d8781611d4b565b9050919050565b7f54686973206576656e7420686173207265616368656420636170616369747900600082015250565b6000611dc4601f83611a26565b9150611dcf82611d8e565b602082019050919050565b60006020820190508181036000830152611df381611db7565b9050919050565b7f4e487b7100000000000000000000000000000000000000000000000000000000600052603260045260246000fd5b7f414c524541445920434f4e4649524d4544000000000000000000000000000000600082015250565b6000611e5f601183611a26565b9150611e6a82611e29565b602082019050919050565b60006020820190508181036000830152611e8e81611e52565b9050919050565b7f4e487b7100000000000000000000000000000000000000000000000000000000600052601160045260246000fd5b600060ff82169050919050565b6000611edc82611ec4565b915060ff821415611ef057611eef611e95565b5b600182019050919050565b6000604082019050611f106000830185611a0c565b611f1d6020830184611ab4565b9392505050565b7f4e4f5420415554484f52495a4544000000000000000000000000000000000000600082015250565b6000611f5a600e83611a26565b9150611f6582611f24565b602082019050919050565b60006020820190508181036000830152611f8981611f4d565b9050919050565b7f4e4f205253565020544f20434f4e4649524d0000000000000000000000000000600082015250565b6000611fc6601283611a26565b9150611fd182611f90565b602082019050919050565b60006020820190508181036000830152611ff581611fb9565b9050919050565b7f414c524541445920434c41494d45440000000000000000000000000000000000600082015250565b6000612032600f83611a26565b915061203d82611ffc565b602082019050919050565b6000602082019050818103600083015261206181612025565b9050919050565b7f414c52454144592050414944204f555400000000000000000000000000000000600082015250565b600061209e601083611a26565b91506120a982612068565b602082019050919050565b600060208201905081810360008301526120cd81612091565b9050919050565b600081905092915050565b50565b60006120ef6000836120d4565b91506120fa826120df565b600082019050919050565b6000612110826120e2565b9150819050919050565b7f4e487b7100000000000000000000000000000000000000000000000000000000600052603160045260246000fd5b7f4661696c656420746f2073656e64204574686572000000000000000000000000600082015250565b600061217f601483611a26565b915061218a82612149565b602082019050919050565b600060208201905081810360008301526121ae81612172565b9050919050565b7f4e487b7100000000000000000000000000000000000000000000000000000000600052602260045260246000fd5b600060028204905060018216806121fc57607f821691505b602082108114156122105761220f6121b5565b5b50919050565b7f414c524541445920504149440000000000000000000000000000000000000000600082015250565b600061224c600c83611a26565b915061225782612216565b602082019050919050565b6000602082019050818103600083015261227b8161223f565b9050919050565b600061228d82611ac3565b915061229883611ac3565b9250827fffffffffffffffffffffffffffffffffffffffffffffffffffffffffffffffff038211156122cd576122cc611e95565b5b828201905092915050565b7f544f4f204541524c590000000000000000000000000000000000000000000000600082015250565b600061230e600983611a26565b9150612319826122d8565b602082019050919050565b6000602082019050818103600083015261233d81612301565b9050919050565b7f4d555354204245204556454e54204f574e455200000000000000000000000000600082015250565b600061237a601383611a26565b915061238582612344565b602082019050919050565b600060208201905081810360008301526123a98161236d565b9050919050565b60006123bb82611ac3565b91506123c683611ac3565b9250828210156123d9576123d8611e95565b5b828203905092915050565b60006123ef82611ac3565b91506123fa83611ac3565b9250817fffffffffffffffffffffffffffffffffffffffffffffffffffffffffffffffff048311821515161561243357612432611e95565b5b828202905092915050565b60006020820190506124536000830184611a0c565b92915050565b600060408201905061246e6000830185611a0c565b61247b6020830184611ae8565b9392505050565b60008160601b9050919050565b600061249a82612482565b9050919050565b60006124ac8261248f565b9050919050565b6124c46124bf8261198e565b6124a1565b82525050565b6000819050919050565b6124e56124e082611ac3565b6124ca565b82525050565b60006124f782886124b3565b60148201915061250782876124b3565b60148201915061251782866124d4565b60208201915061252782856124d4565b60208201915061253782846124d4565b6020820191508190509695505050505050565b82818337600083830152505050565b60006125658385611a26565b935061257283858461254a565b61257b83611a6a565b840190509392505050565b60006101008201905061259c600083018c611a0c565b6125a9602083018b611ab4565b6125b6604083018a611acd565b6125c36060830189611acd565b6125d06080830188611acd565b6125dd60a0830187611acd565b81810360c08301526125f0818587612559565b90506125ff60e0830184611ae8565b9a995050505050505050505056fea2646970667358221220dbfed6f9c3594d1081c427c4857061370276be46e434f0aa2009fcfac0d1077764736f6c63430008090033",
  "linkReferences": {},
  "deployedLinkReferences": {}
}